{
  "_format": "hh-sol-artifact-1",
  "contractName": "EVMAuthPurchasableERC1155",
  "sourceName": "contracts/EVMAuthPurchasableERC1155.sol",
  "abi": [
    {
      "inputs": [
        {
          "internalType": "string",
          "name": "uri",
          "type": "string"
        },
        {
          "internalType": "address",
          "name": "initialAdmin",
          "type": "address"
        }
      ],
      "stateMutability": "nonpayable",
      "type": "constructor"
    },
    {
      "inputs": [],
      "name": "AccessControlBadConfirmation",
      "type": "error"
    },
    {
      "inputs": [
        {
          "internalType": "address",
          "name": "account",
          "type": "address"
        },
        {
          "internalType": "bytes32",
          "name": "neededRole",
          "type": "bytes32"
        }
      ],
      "name": "AccessControlUnauthorizedAccount",
      "type": "error"
    },
    {
      "inputs": [
        {
          "internalType": "address",
          "name": "sender",
          "type": "address"
        },
        {
          "internalType": "uint256",
          "name": "balance",
          "type": "uint256"
        },
        {
          "internalType": "uint256",
          "name": "needed",
          "type": "uint256"
        },
        {
          "internalType": "uint256",
          "name": "tokenId",
          "type": "uint256"
        }
      ],
      "name": "ERC1155InsufficientBalance",
      "type": "error"
    },
    {
      "inputs": [
        {
          "internalType": "address",
          "name": "approver",
          "type": "address"
        }
      ],
      "name": "ERC1155InvalidApprover",
      "type": "error"
    },
    {
      "inputs": [
        {
          "internalType": "uint256",
          "name": "idsLength",
          "type": "uint256"
        },
        {
          "internalType": "uint256",
          "name": "valuesLength",
          "type": "uint256"
        }
      ],
      "name": "ERC1155InvalidArrayLength",
      "type": "error"
    },
    {
      "inputs": [
        {
          "internalType": "address",
          "name": "operator",
          "type": "address"
        }
      ],
      "name": "ERC1155InvalidOperator",
      "type": "error"
    },
    {
      "inputs": [
        {
          "internalType": "address",
          "name": "receiver",
          "type": "address"
        }
      ],
      "name": "ERC1155InvalidReceiver",
      "type": "error"
    },
    {
      "inputs": [
        {
          "internalType": "address",
          "name": "sender",
          "type": "address"
        }
      ],
      "name": "ERC1155InvalidSender",
      "type": "error"
    },
    {
      "inputs": [
        {
          "internalType": "address",
          "name": "operator",
          "type": "address"
        },
        {
          "internalType": "address",
          "name": "owner",
          "type": "address"
        }
      ],
      "name": "ERC1155MissingApprovalForAll",
      "type": "error"
    },
    {
      "inputs": [],
      "name": "ReentrancyGuardReentrantCall",
      "type": "error"
    },
    {
      "anonymous": false,
      "inputs": [
        {
          "indexed": true,
          "internalType": "address",
          "name": "account",
          "type": "address"
        }
      ],
      "name": "AccountBlacklisted",
      "type": "event"
    },
    {
      "anonymous": false,
      "inputs": [
        {
          "indexed": true,
          "internalType": "address",
          "name": "account",
          "type": "address"
        }
      ],
      "name": "AccountUnblacklisted",
      "type": "event"
    },
    {
      "anonymous": false,
      "inputs": [
        {
          "indexed": true,
          "internalType": "address",
          "name": "account",
          "type": "address"
        },
        {
          "indexed": true,
          "internalType": "address",
          "name": "operator",
          "type": "address"
        },
        {
          "indexed": false,
          "internalType": "bool",
          "name": "approved",
          "type": "bool"
        }
      ],
      "name": "ApprovalForAll",
      "type": "event"
    },
    {
      "anonymous": false,
      "inputs": [
        {
          "indexed": true,
          "internalType": "address",
          "name": "from",
          "type": "address"
        },
        {
          "indexed": false,
          "internalType": "uint256",
          "name": "amount",
          "type": "uint256"
        }
      ],
      "name": "FundsDeposited",
      "type": "event"
    },
    {
      "anonymous": false,
      "inputs": [
        {
          "indexed": true,
          "internalType": "address",
          "name": "to",
          "type": "address"
        },
        {
          "indexed": false,
          "internalType": "uint256",
          "name": "amount",
          "type": "uint256"
        }
      ],
      "name": "FundsWithdrawn",
      "type": "event"
    },
    {
      "anonymous": false,
      "inputs": [
        {
          "indexed": true,
          "internalType": "bytes32",
          "name": "role",
          "type": "bytes32"
        },
        {
          "indexed": true,
          "internalType": "bytes32",
          "name": "previousAdminRole",
          "type": "bytes32"
        },
        {
          "indexed": true,
          "internalType": "bytes32",
          "name": "newAdminRole",
          "type": "bytes32"
        }
      ],
      "name": "RoleAdminChanged",
      "type": "event"
    },
    {
      "anonymous": false,
      "inputs": [
        {
          "indexed": true,
          "internalType": "bytes32",
          "name": "role",
          "type": "bytes32"
        },
        {
          "indexed": true,
          "internalType": "address",
          "name": "account",
          "type": "address"
        },
        {
          "indexed": true,
          "internalType": "address",
          "name": "sender",
          "type": "address"
        }
      ],
      "name": "RoleGranted",
      "type": "event"
    },
    {
      "anonymous": false,
      "inputs": [
        {
          "indexed": true,
          "internalType": "bytes32",
          "name": "role",
          "type": "bytes32"
        },
        {
          "indexed": true,
          "internalType": "address",
          "name": "account",
          "type": "address"
        },
        {
          "indexed": true,
          "internalType": "address",
          "name": "sender",
          "type": "address"
        }
      ],
      "name": "RoleRevoked",
      "type": "event"
    },
    {
      "anonymous": false,
      "inputs": [
        {
          "indexed": true,
          "internalType": "uint256",
          "name": "tokenId",
          "type": "uint256"
        },
        {
          "indexed": false,
          "internalType": "bool",
          "name": "active",
          "type": "bool"
        },
        {
          "indexed": false,
          "internalType": "bool",
          "name": "burnable",
          "type": "bool"
        },
        {
          "indexed": false,
          "internalType": "bool",
          "name": "transferable",
          "type": "bool"
        },
        {
          "indexed": false,
          "internalType": "uint256",
          "name": "price",
          "type": "uint256"
        },
        {
          "indexed": false,
          "internalType": "uint256",
          "name": "ttl",
          "type": "uint256"
        }
      ],
      "name": "TokenMetadataSet",
      "type": "event"
    },
    {
      "anonymous": false,
      "inputs": [
        {
          "indexed": true,
          "internalType": "address",
          "name": "buyer",
          "type": "address"
        },
        {
          "indexed": true,
          "internalType": "uint256",
          "name": "tokenId",
          "type": "uint256"
        },
        {
          "indexed": false,
          "internalType": "uint256",
          "name": "amount",
          "type": "uint256"
        },
        {
          "indexed": false,
          "internalType": "uint256",
          "name": "price",
          "type": "uint256"
        },
        {
          "indexed": false,
          "internalType": "uint256",
          "name": "totalCost",
          "type": "uint256"
        }
      ],
      "name": "TokenPurchased",
      "type": "event"
    },
    {
      "anonymous": false,
      "inputs": [
        {
          "indexed": true,
          "internalType": "address",
          "name": "operator",
          "type": "address"
        },
        {
          "indexed": true,
          "internalType": "address",
          "name": "from",
          "type": "address"
        },
        {
          "indexed": true,
          "internalType": "address",
          "name": "to",
          "type": "address"
        },
        {
          "indexed": false,
          "internalType": "uint256[]",
          "name": "ids",
          "type": "uint256[]"
        },
        {
          "indexed": false,
          "internalType": "uint256[]",
          "name": "values",
          "type": "uint256[]"
        }
      ],
      "name": "TransferBatch",
      "type": "event"
    },
    {
      "anonymous": false,
      "inputs": [
        {
          "indexed": true,
          "internalType": "address",
          "name": "operator",
          "type": "address"
        },
        {
          "indexed": true,
          "internalType": "address",
          "name": "from",
          "type": "address"
        },
        {
          "indexed": true,
          "internalType": "address",
          "name": "to",
          "type": "address"
        },
        {
          "indexed": false,
          "internalType": "uint256",
          "name": "id",
          "type": "uint256"
        },
        {
          "indexed": false,
          "internalType": "uint256",
          "name": "value",
          "type": "uint256"
        }
      ],
      "name": "TransferSingle",
      "type": "event"
    },
    {
      "anonymous": false,
      "inputs": [
        {
          "indexed": false,
          "internalType": "string",
          "name": "value",
          "type": "string"
        },
        {
          "indexed": true,
          "internalType": "uint256",
          "name": "id",
          "type": "uint256"
        }
      ],
      "name": "URI",
      "type": "event"
    },
    {
      "stateMutability": "payable",
      "type": "fallback"
    },
    {
      "inputs": [],
      "name": "BLACKLIST_ROLE",
      "outputs": [
        {
          "internalType": "bytes32",
          "name": "",
          "type": "bytes32"
        }
      ],
      "stateMutability": "view",
      "type": "function"
    },
    {
      "inputs": [],
      "name": "BURNER_ROLE",
      "outputs": [
        {
          "internalType": "bytes32",
          "name": "",
          "type": "bytes32"
        }
      ],
      "stateMutability": "view",
      "type": "function"
    },
    {
      "inputs": [],
      "name": "DEFAULT_ADMIN_ROLE",
      "outputs": [
        {
          "internalType": "bytes32",
          "name": "",
          "type": "bytes32"
        }
      ],
      "stateMutability": "view",
      "type": "function"
    },
    {
      "inputs": [],
      "name": "FINANCE_ROLE",
      "outputs": [
        {
          "internalType": "bytes32",
          "name": "",
          "type": "bytes32"
        }
      ],
      "stateMutability": "view",
      "type": "function"
    },
    {
      "inputs": [],
      "name": "MINTER_ROLE",
      "outputs": [
        {
          "internalType": "bytes32",
          "name": "",
          "type": "bytes32"
        }
      ],
      "stateMutability": "view",
      "type": "function"
    },
    {
      "inputs": [],
      "name": "TOKEN_MANAGER_ROLE",
      "outputs": [
        {
          "internalType": "bytes32",
          "name": "",
          "type": "bytes32"
        }
      ],
      "stateMutability": "view",
      "type": "function"
    },
    {
      "inputs": [
        {
          "internalType": "address",
          "name": "account",
          "type": "address"
        },
        {
          "internalType": "uint256",
          "name": "id",
          "type": "uint256"
        }
      ],
      "name": "balanceOf",
      "outputs": [
        {
          "internalType": "uint256",
          "name": "",
          "type": "uint256"
        }
      ],
      "stateMutability": "view",
      "type": "function"
    },
    {
      "inputs": [
        {
          "internalType": "address[]",
          "name": "accounts",
          "type": "address[]"
        },
        {
          "internalType": "uint256[]",
          "name": "ids",
          "type": "uint256[]"
        }
      ],
      "name": "balanceOfBatch",
      "outputs": [
        {
          "internalType": "uint256[]",
          "name": "",
          "type": "uint256[]"
        }
      ],
      "stateMutability": "view",
      "type": "function"
    },
    {
      "inputs": [
        {
          "internalType": "address",
          "name": "account",
          "type": "address"
        }
      ],
      "name": "blacklistAccount",
      "outputs": [],
      "stateMutability": "nonpayable",
      "type": "function"
    },
    {
      "inputs": [
        {
          "internalType": "address",
          "name": "from",
          "type": "address"
        },
        {
          "internalType": "uint256",
          "name": "tokenId",
          "type": "uint256"
        },
        {
          "internalType": "uint256",
          "name": "amount",
          "type": "uint256"
        }
      ],
      "name": "burn",
      "outputs": [],
      "stateMutability": "nonpayable",
      "type": "function"
    },
    {
      "inputs": [
        {
          "internalType": "address",
          "name": "from",
          "type": "address"
        },
        {
          "internalType": "uint256[]",
          "name": "tokenIds",
          "type": "uint256[]"
        },
        {
          "internalType": "uint256[]",
          "name": "amounts",
          "type": "uint256[]"
        }
      ],
      "name": "burnBatch",
      "outputs": [],
      "stateMutability": "nonpayable",
      "type": "function"
    },
    {
      "inputs": [
        {
          "internalType": "uint256",
          "name": "tokenId",
          "type": "uint256"
        },
        {
          "internalType": "uint256",
          "name": "amount",
          "type": "uint256"
        }
      ],
      "name": "calculateTotalCost",
      "outputs": [
        {
          "internalType": "uint256",
          "name": "",
          "type": "uint256"
        }
      ],
      "stateMutability": "view",
      "type": "function"
    },
    {
      "inputs": [
        {
          "internalType": "uint256",
          "name": "tokenId",
          "type": "uint256"
        }
      ],
      "name": "canPurchaseToken",
      "outputs": [
        {
          "internalType": "bool",
          "name": "",
          "type": "bool"
        }
      ],
      "stateMutability": "view",
      "type": "function"
    },
    {
      "inputs": [],
      "name": "depositFunds",
      "outputs": [],
      "stateMutability": "payable",
      "type": "function"
    },
    {
      "inputs": [],
      "name": "emergencyWithdraw",
      "outputs": [],
      "stateMutability": "nonpayable",
      "type": "function"
    },
    {
      "inputs": [],
      "name": "getContractBalance",
      "outputs": [
        {
          "internalType": "uint256",
          "name": "",
          "type": "uint256"
        }
      ],
      "stateMutability": "view",
      "type": "function"
    },
    {
      "inputs": [],
      "name": "getNextTokenId",
      "outputs": [
        {
          "internalType": "uint256",
          "name": "",
          "type": "uint256"
        }
      ],
      "stateMutability": "view",
      "type": "function"
    },
    {
      "inputs": [
        {
          "internalType": "bytes32",
          "name": "role",
          "type": "bytes32"
        }
      ],
      "name": "getRoleAdmin",
      "outputs": [
        {
          "internalType": "bytes32",
          "name": "",
          "type": "bytes32"
        }
      ],
      "stateMutability": "view",
      "type": "function"
    },
    {
      "inputs": [
        {
          "internalType": "uint256",
          "name": "tokenId",
          "type": "uint256"
        }
      ],
      "name": "getTokenPrice",
      "outputs": [
        {
          "internalType": "uint256",
          "name": "",
          "type": "uint256"
        }
      ],
      "stateMutability": "view",
      "type": "function"
    },
    {
      "inputs": [
        {
          "internalType": "uint256",
          "name": "tokenId",
          "type": "uint256"
        }
      ],
      "name": "getTokenTTL",
      "outputs": [
        {
          "internalType": "uint256",
          "name": "",
          "type": "uint256"
        }
      ],
      "stateMutability": "view",
      "type": "function"
    },
    {
      "inputs": [],
      "name": "getTotalFunds",
      "outputs": [
        {
          "internalType": "uint256",
          "name": "",
          "type": "uint256"
        }
      ],
      "stateMutability": "view",
      "type": "function"
    },
    {
      "inputs": [
        {
          "internalType": "address",
          "name": "wallet",
          "type": "address"
        }
      ],
      "name": "getWalletBalance",
      "outputs": [
        {
          "internalType": "uint256",
          "name": "",
          "type": "uint256"
        }
      ],
      "stateMutability": "view",
      "type": "function"
    },
    {
      "inputs": [
        {
          "internalType": "bytes32",
          "name": "role",
          "type": "bytes32"
        },
        {
          "internalType": "address",
          "name": "account",
          "type": "address"
        }
      ],
      "name": "grantRole",
      "outputs": [],
      "stateMutability": "nonpayable",
      "type": "function"
    },
    {
      "inputs": [
        {
          "internalType": "bytes32[]",
          "name": "roles",
          "type": "bytes32[]"
        },
        {
          "internalType": "address",
          "name": "account",
          "type": "address"
        }
      ],
      "name": "grantRoles",
      "outputs": [],
      "stateMutability": "nonpayable",
      "type": "function"
    },
    {
      "inputs": [
        {
          "internalType": "bytes32",
          "name": "role",
          "type": "bytes32"
        },
        {
          "internalType": "address",
          "name": "account",
          "type": "address"
        }
      ],
      "name": "hasRole",
      "outputs": [
        {
          "internalType": "bool",
          "name": "",
          "type": "bool"
        }
      ],
      "stateMutability": "view",
      "type": "function"
    },
    {
      "inputs": [
        {
          "internalType": "address",
          "name": "account",
          "type": "address"
        },
        {
          "internalType": "address",
          "name": "operator",
          "type": "address"
        }
      ],
      "name": "isApprovedForAll",
      "outputs": [
        {
          "internalType": "bool",
          "name": "",
          "type": "bool"
        }
      ],
      "stateMutability": "view",
      "type": "function"
    },
    {
      "inputs": [
        {
          "internalType": "address",
          "name": "account",
          "type": "address"
        }
      ],
      "name": "isBlacklisted",
      "outputs": [
        {
          "internalType": "bool",
          "name": "",
          "type": "bool"
        }
      ],
      "stateMutability": "view",
      "type": "function"
    },
    {
      "inputs": [
        {
          "internalType": "uint256",
          "name": "tokenId",
          "type": "uint256"
        }
      ],
      "name": "isTokenActive",
      "outputs": [
        {
          "internalType": "bool",
          "name": "",
          "type": "bool"
        }
      ],
      "stateMutability": "view",
      "type": "function"
    },
    {
      "inputs": [
        {
          "internalType": "uint256",
          "name": "tokenId",
          "type": "uint256"
        }
      ],
      "name": "isTokenBurnable",
      "outputs": [
        {
          "internalType": "bool",
          "name": "",
          "type": "bool"
        }
      ],
      "stateMutability": "view",
      "type": "function"
    },
    {
      "inputs": [
        {
          "internalType": "uint256",
          "name": "tokenId",
          "type": "uint256"
        }
      ],
      "name": "isTokenTransferable",
      "outputs": [
        {
          "internalType": "bool",
          "name": "",
          "type": "bool"
        }
      ],
      "stateMutability": "view",
      "type": "function"
    },
    {
      "inputs": [
        {
          "internalType": "address",
          "name": "to",
          "type": "address"
        },
        {
          "internalType": "uint256",
          "name": "tokenId",
          "type": "uint256"
        },
        {
          "internalType": "uint256",
          "name": "amount",
          "type": "uint256"
        },
        {
          "internalType": "bytes",
          "name": "data",
          "type": "bytes"
        }
      ],
      "name": "mint",
      "outputs": [],
      "stateMutability": "nonpayable",
      "type": "function"
    },
    {
      "inputs": [
        {
          "internalType": "address",
          "name": "to",
          "type": "address"
        },
        {
          "internalType": "uint256[]",
          "name": "tokenIds",
          "type": "uint256[]"
        },
        {
          "internalType": "uint256[]",
          "name": "amounts",
          "type": "uint256[]"
        },
        {
          "internalType": "bytes",
          "name": "data",
          "type": "bytes"
        }
      ],
      "name": "mintBatch",
      "outputs": [],
      "stateMutability": "nonpayable",
      "type": "function"
    },
    {
      "inputs": [
        {
          "internalType": "uint256",
          "name": "tokenId",
          "type": "uint256"
        }
      ],
      "name": "purchaseToken",
      "outputs": [],
      "stateMutability": "payable",
      "type": "function"
    },
    {
      "inputs": [
        {
          "internalType": "uint256",
          "name": "tokenId",
          "type": "uint256"
        },
        {
          "internalType": "uint256",
          "name": "amount",
          "type": "uint256"
        }
      ],
      "name": "purchaseTokens",
      "outputs": [],
      "stateMutability": "payable",
      "type": "function"
    },
    {
      "inputs": [
        {
          "internalType": "bytes32",
          "name": "role",
          "type": "bytes32"
        },
        {
          "internalType": "address",
          "name": "callerConfirmation",
          "type": "address"
        }
      ],
      "name": "renounceRole",
      "outputs": [],
      "stateMutability": "nonpayable",
      "type": "function"
    },
    {
      "inputs": [
        {
          "internalType": "bytes32",
          "name": "role",
          "type": "bytes32"
        },
        {
          "internalType": "address",
          "name": "account",
          "type": "address"
        }
      ],
      "name": "revokeRole",
      "outputs": [],
      "stateMutability": "nonpayable",
      "type": "function"
    },
    {
      "inputs": [
        {
          "internalType": "bytes32[]",
          "name": "roles",
          "type": "bytes32[]"
        },
        {
          "internalType": "address",
          "name": "account",
          "type": "address"
        }
      ],
      "name": "revokeRoles",
      "outputs": [],
      "stateMutability": "nonpayable",
      "type": "function"
    },
    {
      "inputs": [
        {
          "internalType": "address",
          "name": "from",
          "type": "address"
        },
        {
          "internalType": "address",
          "name": "to",
          "type": "address"
        },
        {
          "internalType": "uint256[]",
          "name": "ids",
          "type": "uint256[]"
        },
        {
          "internalType": "uint256[]",
          "name": "amounts",
          "type": "uint256[]"
        },
        {
          "internalType": "bytes",
          "name": "data",
          "type": "bytes"
        }
      ],
      "name": "safeBatchTransferFrom",
      "outputs": [],
      "stateMutability": "nonpayable",
      "type": "function"
    },
    {
      "inputs": [
        {
          "internalType": "address",
          "name": "from",
          "type": "address"
        },
        {
          "internalType": "address",
          "name": "to",
          "type": "address"
        },
        {
          "internalType": "uint256",
          "name": "id",
          "type": "uint256"
        },
        {
          "internalType": "uint256",
          "name": "amount",
          "type": "uint256"
        },
        {
          "internalType": "bytes",
          "name": "data",
          "type": "bytes"
        }
      ],
      "name": "safeTransferFrom",
      "outputs": [],
      "stateMutability": "nonpayable",
      "type": "function"
    },
    {
      "inputs": [
        {
          "internalType": "address",
          "name": "operator",
          "type": "address"
        },
        {
          "internalType": "bool",
          "name": "approved",
          "type": "bool"
        }
      ],
      "name": "setApprovalForAll",
      "outputs": [],
      "stateMutability": "nonpayable",
      "type": "function"
    },
    {
      "inputs": [
        {
          "internalType": "uint256",
          "name": "tokenId",
          "type": "uint256"
        },
        {
          "internalType": "bool",
          "name": "active",
          "type": "bool"
        },
        {
          "internalType": "bool",
          "name": "burnable",
          "type": "bool"
        },
        {
          "internalType": "bool",
          "name": "transferable",
          "type": "bool"
        },
        {
          "internalType": "uint256",
          "name": "price",
          "type": "uint256"
        },
        {
          "internalType": "uint256",
          "name": "ttl",
          "type": "uint256"
        }
      ],
      "name": "setTokenMetadata",
      "outputs": [],
      "stateMutability": "nonpayable",
      "type": "function"
    },
    {
      "inputs": [
        {
          "internalType": "bytes4",
          "name": "interfaceId",
          "type": "bytes4"
        }
      ],
      "name": "supportsInterface",
      "outputs": [
        {
          "internalType": "bool",
          "name": "",
          "type": "bool"
        }
      ],
      "stateMutability": "view",
      "type": "function"
    },
    {
      "inputs": [
        {
          "internalType": "uint256",
          "name": "",
          "type": "uint256"
        }
      ],
      "name": "tokenMetadata",
      "outputs": [
        {
          "internalType": "bool",
          "name": "active",
          "type": "bool"
        },
        {
          "internalType": "bool",
          "name": "burnable",
          "type": "bool"
        },
        {
          "internalType": "bool",
          "name": "transferable",
          "type": "bool"
        },
        {
          "internalType": "uint256",
          "name": "price",
          "type": "uint256"
        },
        {
          "internalType": "uint256",
          "name": "ttl",
          "type": "uint256"
        }
      ],
      "stateMutability": "view",
      "type": "function"
    },
    {
      "inputs": [
        {
          "internalType": "address",
          "name": "account",
          "type": "address"
        }
      ],
      "name": "unblacklistAccount",
      "outputs": [],
      "stateMutability": "nonpayable",
      "type": "function"
    },
    {
      "inputs": [
        {
          "internalType": "uint256",
          "name": "",
          "type": "uint256"
        }
      ],
      "name": "uri",
      "outputs": [
        {
          "internalType": "string",
          "name": "",
          "type": "string"
        }
      ],
      "stateMutability": "view",
      "type": "function"
    },
    {
      "inputs": [
        {
          "internalType": "address payable",
          "name": "to",
          "type": "address"
        }
      ],
      "name": "withdrawAllFunds",
      "outputs": [],
      "stateMutability": "nonpayable",
      "type": "function"
    },
    {
      "inputs": [
        {
          "internalType": "address payable",
          "name": "to",
          "type": "address"
        },
        {
          "internalType": "uint256",
          "name": "amount",
          "type": "uint256"
        }
      ],
      "name": "withdrawFunds",
      "outputs": [],
      "stateMutability": "nonpayable",
      "type": "function"
    },
    {
      "stateMutability": "payable",
      "type": "receive"
    }
  ],
  "bytecode": "0x60806040523480156200001157600080fd5b50604051620037ef380380620037ef83398101604081905262000034916200023c565b81818082620000438162000144565b506200005160008262000156565b506200007e7f22435ed027edf5f902dc0093fbc24cdb50c05b5fd5f311b78c67c1cbaff60e138262000156565b50620000ab7f940d6b1946ff1d2b5a9f1909219c3c81a370804b5ba0f91ec0828c99a2e6a6818262000156565b50620000d87f74f7a545c65c11839a48d7453738b30c295408df2d944516167556759ddc6d068262000156565b50620001057f9f2df0fed2c77648de5860a4cc508cd0818c85b8b8a1ab4ceeef8d981c8956a68262000156565b50620001327f3c11d16cbaffd01df69ce1c404f6340ee057498f5f00246190ea54220576a8488262000156565b50506001600555506200047f92505050565b6002620001528282620003b3565b5050565b60008281526003602090815260408083206001600160a01b038516845290915281205460ff16620001ff5760008381526003602090815260408083206001600160a01b03861684529091529020805460ff19166001179055620001b63390565b6001600160a01b0316826001600160a01b0316847f2f8788117e7eff1d82e926ec794901d17c78024a50270940304540a733656f0d60405160405180910390a450600162000203565b5060005b92915050565b634e487b7160e01b600052604160045260246000fd5b80516001600160a01b03811681146200023757600080fd5b919050565b600080604083850312156200025057600080fd5b82516001600160401b03808211156200026857600080fd5b818501915085601f8301126200027d57600080fd5b81518181111562000292576200029262000209565b604051601f8201601f19908116603f01168101908382118183101715620002bd57620002bd62000209565b81604052828152602093508884848701011115620002da57600080fd5b600091505b82821015620002fe5784820184015181830185015290830190620002df565b6000848483010152809650505050620003198186016200021f565b925050509250929050565b600181811c908216806200033957607f821691505b6020821081036200035a57634e487b7160e01b600052602260045260246000fd5b50919050565b601f821115620003ae57600081815260208120601f850160051c81016020861015620003895750805b601f850160051c820191505b81811015620003aa5782815560010162000395565b5050505b505050565b81516001600160401b03811115620003cf57620003cf62000209565b620003e781620003e0845462000324565b8462000360565b602080601f8311600181146200041f5760008415620004065750858301515b600019600386901b1c1916600185901b178555620003aa565b600085815260208120601f198616915b8281101562000450578886015182559484019460019091019084016200042f565b50858210156200046f5787850151600019600388901b60f8161c191681555b5050505050600190811b01905550565b613360806200048f6000396000f3fe60806040526004361061028b5760003560e01c806391d148541161015a578063d5391393116100c1578063eb8bbd281161007a578063eb8bbd2814610944578063ed8ec19414610959578063f242432a1461098f578063f5298aca146109af578063fcd7627e146109cf578063fe575a87146109ef57610302565b8063d53913931461087d578063d547741f146108b1578063db2e21bc146108d1578063ddaec205146108e6578063e2c41dbc1461091c578063e985e9c51461092457610302565b8063c2840e6011610113578063c2840e60146107b1578063c2db2c42146107e5578063c457fb37146107f8578063caa0f92a14610828578063cc619a521461083d578063d37b34d71461085d57610302565b806391d14854146106ec578063988360a31461070c5780639b0b92ef1461072c578063a217fddf1461075c578063a22cb46514610771578063c10753291461079157610302565b8063349b5954116101fe5780636d7331ed116101b75780636d7331ed146106215780636f9fb98a14610641578063731133e9146106545780637827136b1461067457806387adc7b5146106a95780638bf0af3e146106d957610302565b8063349b5954146104de57806336568abe1461051257806341106c5b146105325780634e1273f4146105525780636914db601461057f5780636b20c4541461060157610302565b8063248a9ca311610250578063248a9ca3146103fa578063282c51f31461042a57806329b0295b1461045e5780632eb2c2d61461047e5780632f2ff15d1461049e57806332dee40b146104be57610302565b8062fdd58e1461031457806301ffc9a7146103475780630e89341c1461037757806319afe463146103a45780631f7fdffa146103d857610302565b366103025734600960008282546102a291906128de565b909155505030600090815260086020526040812080543492906102c69084906128de565b909155505060405134815233907f543ba50a5eec5e6178218e364b1d0f396157b3c8fa278522c2cb7fd99407d4749060200160405180910390a2005b34600960008282546102a291906128de565b34801561032057600080fd5b5061033461032f366004612906565b610a28565b6040519081526020015b60405180910390f35b34801561035357600080fd5b50610367610362366004612948565b610a50565b604051901515815260200161033e565b34801561038357600080fd5b50610397610392366004612965565b610a5b565b60405161033e91906129c4565b3480156103b057600080fd5b506103347f22435ed027edf5f902dc0093fbc24cdb50c05b5fd5f311b78c67c1cbaff60e1381565b3480156103e457600080fd5b506103f86103f3366004612b1d565b610aef565b005b34801561040657600080fd5b50610334610415366004612965565b60009081526003602052604090206001015490565b34801561043657600080fd5b506103347f3c11d16cbaffd01df69ce1c404f6340ee057498f5f00246190ea54220576a84881565b34801561046a57600080fd5b50610367610479366004612965565b610be0565b34801561048a57600080fd5b506103f8610499366004612bb8565b610c53565b3480156104aa57600080fd5b506103f86104b9366004612c66565b610d87565b3480156104ca57600080fd5b506103f86104d9366004612c96565b610db2565b3480156104ea57600080fd5b506103347f940d6b1946ff1d2b5a9f1909219c3c81a370804b5ba0f91ec0828c99a2e6a68181565b34801561051e57600080fd5b506103f861052d366004612c66565b610efe565b34801561053e57600080fd5b506103f861054d366004612cc8565b610f36565b34801561055e57600080fd5b5061057261056d366004612d27565b611052565b60405161033e9190612e24565b34801561058b57600080fd5b506105d061059a366004612965565b60066020526000908152604090208054600182015460029092015460ff8083169361010084048216936201000090049091169185565b60405161033e9594939291909415158552921515602085015290151560408401526060830152608082015260a00190565b34801561060d57600080fd5b506103f861061c366004612e37565b611127565b34801561062d57600080fd5b506103f861063c366004612c96565b611204565b34801561064d57600080fd5b5047610334565b34801561066057600080fd5b506103f861066f366004612ead565b611278565b34801561068057600080fd5b5061036761068f366004612965565b600090815260066020526040902054610100900460ff1690565b3480156106b557600080fd5b506103346106c4366004612965565b60009081526006602052604090206002015490565b6103f86106e7366004612f04565b611317565b3480156106f857600080fd5b50610367610707366004612c66565b6115ca565b34801561071857600080fd5b506103f8610727366004612f26565b6115f5565b34801561073857600080fd5b50610367610747366004612965565b60009081526006602052604090205460ff1690565b34801561076857600080fd5b50610334600081565b34801561077d57600080fd5b506103f861078c366004612fac565b611634565b34801561079d57600080fd5b506103f86107ac366004612906565b61163f565b3480156107bd57600080fd5b506103347f74f7a545c65c11839a48d7453738b30c295408df2d944516167556759ddc6d0681565b6103f86107f3366004612965565b611837565b34801561080457600080fd5b50610334610813366004612965565b60009081526006602052604090206001015490565b34801561083457600080fd5b50610334611ac9565b34801561084957600080fd5b50610334610858366004612f04565b611adf565b34801561086957600080fd5b506103f8610878366004612c96565b611afc565b34801561088957600080fd5b506103347f9f2df0fed2c77648de5860a4cc508cd0818c85b8b8a1ab4ceeef8d981c8956a681565b3480156108bd57600080fd5b506103f86108cc366004612c66565b611b73565b3480156108dd57600080fd5b506103f8611b98565b3480156108f257600080fd5b50610367610901366004612965565b60009081526006602052604090205462010000900460ff1690565b6103f8611c37565b34801561093057600080fd5b5061036761093f366004612fe1565b611cf9565b34801561095057600080fd5b50600954610334565b34801561096557600080fd5b50610334610974366004612c96565b6001600160a01b031660009081526008602052604090205490565b34801561099b57600080fd5b506103f86109aa36600461300f565b611d27565b3480156109bb57600080fd5b506103f86109ca366004613078565b611e0e565b3480156109db57600080fd5b506103f86109ea366004612f26565b611ea6565b3480156109fb57600080fd5b50610367610a0a366004612c96565b6001600160a01b031660009081526004602052604090205460ff1690565b6000818152602081815260408083206001600160a01b03861684529091529020545b92915050565b6000610a4a82611ee5565b606060028054610a6a906130ad565b80601f0160208091040260200160405190810160405280929190818152602001828054610a96906130ad565b8015610ae35780601f10610ab857610100808354040283529160200191610ae3565b820191906000526020600020905b815481529060010190602001808311610ac657829003601f168201915b50505050509050919050565b7f9f2df0fed2c77648de5860a4cc508cd0818c85b8b8a1ab4ceeef8d981c8956a6610b1981611f0a565b6001600160a01b038516600090815260046020526040902054859060ff1615610b5d5760405162461bcd60e51b8152600401610b54906130e7565b60405180910390fd5b60005b8551811015610bcb5760066000878381518110610b7f57610b7f61311e565b60209081029190910181015182528101919091526040016000205460ff16610bb95760405162461bcd60e51b8152600401610b5490613134565b80610bc38161316b565b915050610b60565b50610bd886868686611f14565b505050505050565b6000818152600660209081526040808320815160a081018352815460ff8082161580158085526101008404831615159785019790975262010000909204161515938201939093526001820154606082015260029091015460808201529190610c4c575060008160600151115b9392505050565b6001600160a01b038516600090815260046020526040902054859060ff1615610c8e5760405162461bcd60e51b8152600401610b54906130e7565b6001600160a01b038516600090815260046020526040902054859060ff1615610cc95760405162461bcd60e51b8152600401610b54906130e7565b60005b8551811015610d705760066000878381518110610ceb57610ceb61311e565b6020026020010151815260200190815260200160002060000160029054906101000a900460ff16610d5e5760405162461bcd60e51b815260206004820152601f60248201527f45564d417574683a20746f6b656e206e6f74207472616e7366657261626c65006044820152606401610b54565b80610d688161316b565b915050610ccc565b50610d7e8787878787611f4c565b50505050505050565b600082815260036020526040902060010154610da281611f0a565b610dac8383611fab565b50505050565b7f940d6b1946ff1d2b5a9f1909219c3c81a370804b5ba0f91ec0828c99a2e6a681610ddc81611f0a565b610de461203f565b6001600160a01b038216610e0a5760405162461bcd60e51b8152600401610b5490613184565b600060095411610e5c5760405162461bcd60e51b815260206004820152601d60248201527f45564d417574683a206e6f2066756e647320746f2077697468647261770000006044820152606401610b54565b60098054600091829055308252600860205260408083208390555190916001600160a01b0385169183156108fc0291849190818181858888f19350505050158015610eab573d6000803e3d6000fd5b50826001600160a01b03167feaff4b37086828766ad3268786972c0cd24259d4c87a80f9d3963a3c3d999b0d82604051610ee791815260200190565b60405180910390a250610efa6001600555565b5050565b6001600160a01b0381163314610f275760405163334bd91960e11b815260040160405180910390fd5b610f318282612069565b505050565b7f74f7a545c65c11839a48d7453738b30c295408df2d944516167556759ddc6d06610f6081611f0a565b6040805160a08101825287151581528615156020808301918252871515838501908152606084018881526080850188815260008e815260069094529286902094518554945192511515620100000262ff0000199315156101000261ff00199215159290921661ffff1990961695909517179190911692909217835590516001830155516002909101555187907fa429b4109cd80d9d9cac24f974f5ec3c34cf54fa620e24ab4c4697b9c98c4e129061104190899089908990899089909415158552921515602085015290151560408401526060830152608082015260a00190565b60405180910390a250505050505050565b606081518351146110835781518351604051635b05999160e01b815260048101929092526024820152604401610b54565b6000835167ffffffffffffffff81111561109f5761109f6129d7565b6040519080825280602002602001820160405280156110c8578160200160208202803683370190505b50905060005b845181101561111f576020808202860101516110f290602080840287010151610a28565b8282815181106111045761110461311e565b60209081029190910101526111188161316b565b90506110ce565b509392505050565b7f3c11d16cbaffd01df69ce1c404f6340ee057498f5f00246190ea54220576a84861115181611f0a565b60005b83518110156111f857600660008583815181106111735761117361311e565b6020026020010151815260200190815260200160002060000160019054906101000a900460ff166111e65760405162461bcd60e51b815260206004820152601b60248201527f45564d417574683a20746f6b656e206e6f74206275726e61626c6500000000006044820152606401610b54565b806111f08161316b565b915050611154565b50610dac8484846120d6565b7f22435ed027edf5f902dc0093fbc24cdb50c05b5fd5f311b78c67c1cbaff60e1361122e81611f0a565b6001600160a01b038216600081815260046020526040808220805460ff19169055517fedfd4cab3bb8cab50f21bee8952366416fc6dcc47db7e9cc3f7c07aca35569c39190a25050565b7f9f2df0fed2c77648de5860a4cc508cd0818c85b8b8a1ab4ceeef8d981c8956a66112a281611f0a565b6001600160a01b038516600090815260046020526040902054859060ff16156112dd5760405162461bcd60e51b8152600401610b54906130e7565b60008581526006602052604090205460ff1661130b5760405162461bcd60e51b8152600401610b5490613134565b610bd88686868661211c565b61131f61203f565b3360008181526004602052604090205460ff161561134f5760405162461bcd60e51b8152600401610b54906130e7565b600083815260066020908152604091829020825160a081018452815460ff8082161515808452610100830482161515958401959095526201000090910416151593810193909352600181015460608401526002015460808301526113c55760405162461bcd60e51b8152600401610b5490613134565b60008160600151116114195760405162461bcd60e51b815260206004820152601b60248201527f45564d417574683a20746f6b656e206e6f7420666f722073616c6500000000006044820152606401610b54565b600083116114395760405162461bcd60e51b8152600401610b54906131cc565b600083826060015161144b9190613212565b90508034101561149d5760405162461bcd60e51b815260206004820152601d60248201527f45564d417574683a20696e73756666696369656e74207061796d656e740000006044820152606401610b54565b6114b83386866040518060200160405280600081525061211c565b80600960008282546114ca91906128de565b909155505030600090815260086020526040812080548392906114ee9084906128de565b9091555050348110156115745760006115078234613229565b9050806009600082825461151b9190613229565b9091555050306000908152600860205260408120805483929061153f908490613229565b9091555050604051339082156108fc029083906000818181858888f19350505050158015611571573d6000803e3d6000fd5b50505b6060808301516040805187815260208101929092528101839052869133917f7ca4a3cad3bac410861af1b25202900ff3c8dd2174eaaa6c0ef89f2a04e65fd5910160405180910390a3505050610efa6001600555565b60009182526003602090815260408084206001600160a01b0393909316845291905290205460ff1690565b60005b82811015610dac576116228484838181106116155761161561311e565b9050602002013583611b73565b8061162c8161316b565b9150506115f8565b610efa338383612179565b7f940d6b1946ff1d2b5a9f1909219c3c81a370804b5ba0f91ec0828c99a2e6a68161166981611f0a565b61167161203f565b6001600160a01b0383166116975760405162461bcd60e51b8152600401610b5490613184565b600082116116b75760405162461bcd60e51b8152600401610b54906131cc565b478211156117165760405162461bcd60e51b815260206004820152602660248201527f45564d417574683a20696e73756666696369656e7420636f6e74726163742062604482015265616c616e636560d01b6064820152608401610b54565b6009548211156117785760405162461bcd60e51b815260206004820152602760248201527f45564d417574683a20616d6f756e74206578636565647320617661696c61626c604482015266652066756e647360c81b6064820152608401610b54565b816009600082825461178a9190613229565b909155505030600090815260086020526040812080548492906117ae908490613229565b90915550506040516001600160a01b0384169083156108fc029084906000818181858888f193505050501580156117e9573d6000803e3d6000fd5b50826001600160a01b03167feaff4b37086828766ad3268786972c0cd24259d4c87a80f9d3963a3c3d999b0d8360405161182591815260200190565b60405180910390a2610f316001600555565b61183f61203f565b3360008181526004602052604090205460ff161561186f5760405162461bcd60e51b8152600401610b54906130e7565b600082815260066020908152604091829020825160a081018452815460ff8082161515808452610100830482161515958401959095526201000090910416151593810193909352600181015460608401526002015460808301526118e55760405162461bcd60e51b8152600401610b5490613134565b60008160600151116119395760405162461bcd60e51b815260206004820152601b60248201527f45564d417574683a20746f6b656e206e6f7420666f722073616c6500000000006044820152606401610b54565b806060015134101561198d5760405162461bcd60e51b815260206004820152601d60248201527f45564d417574683a20696e73756666696369656e74207061796d656e740000006044820152606401610b54565b6119a9338460016040518060200160405280600081525061211c565b34600960008282546119bb91906128de565b909155505030600090815260086020526040812080543492906119df9084906128de565b90915550506060810151341115611a6f576000816060015134611a029190613229565b90508060096000828254611a169190613229565b90915550503060009081526008602052604081208054839290611a3a908490613229565b9091555050604051339082156108fc029083906000818181858888f19350505050158015611a6c573d6000803e3d6000fd5b50505b60608181015160408051600181526020810183905290810191909152849133917f7ca4a3cad3bac410861af1b25202900ff3c8dd2174eaaa6c0ef89f2a04e65fd5910160405180910390a35050611ac66001600555565b50565b60006007546001611ada91906128de565b905090565b600082815260066020526040812060010154610c4c908390613212565b7f22435ed027edf5f902dc0093fbc24cdb50c05b5fd5f311b78c67c1cbaff60e13611b2681611f0a565b6001600160a01b038216600081815260046020526040808220805460ff19166001179055517f571f7b497ee6f6b62bf6238259f34ef72ad585355587cf9feed80bb4a2b5ce939190a25050565b600082815260036020526040902060010154611b8e81611f0a565b610dac8383612069565b6000611ba381611f0a565b4780611bf15760405162461bcd60e51b815260206004820152601f60248201527f45564d417574683a206e6f2062616c616e636520746f207769746864726177006044820152606401610b54565b604051339082156108fc029083906000818181858888f19350505050158015611c1e573d6000803e3d6000fd5b5050600060098190553081526008602052604081205550565b60003411611c875760405162461bcd60e51b815260206004820152601b60248201527f45564d417574683a206d7573742073656e6420736f6d652045544800000000006044820152606401610b54565b3460096000828254611c9991906128de565b90915550503060009081526008602052604081208054349290611cbd9084906128de565b909155505060405134815233907f543ba50a5eec5e6178218e364b1d0f396157b3c8fa278522c2cb7fd99407d4749060200160405180910390a2565b6001600160a01b03918216600090815260016020908152604080832093909416825291909152205460ff1690565b6001600160a01b038516600090815260046020526040902054859060ff1615611d625760405162461bcd60e51b8152600401610b54906130e7565b6001600160a01b038516600090815260046020526040902054859060ff1615611d9d5760405162461bcd60e51b8152600401610b54906130e7565b60008581526006602052604090205462010000900460ff16611e015760405162461bcd60e51b815260206004820152601f60248201527f45564d417574683a20746f6b656e206e6f74207472616e7366657261626c65006044820152606401610b54565b610d7e878787878761220f565b7f3c11d16cbaffd01df69ce1c404f6340ee057498f5f00246190ea54220576a848611e3881611f0a565b600083815260066020526040902054610100900460ff16611e9b5760405162461bcd60e51b815260206004820152601b60248201527f45564d417574683a20746f6b656e206e6f74206275726e61626c6500000000006044820152606401610b54565b610dac84848461226e565b60005b82811015610dac57611ed3848483818110611ec657611ec661311e565b9050602002013583610d87565b80611edd8161316b565b915050611ea9565b60006001600160e01b03198216637965db0b60e01b1480610a4a5750610a4a826122dd565b611ac6813361232d565b6001600160a01b038416611f3e57604051632bfa23e760e11b815260006004820152602401610b54565b610dac600085858585612366565b336001600160a01b0386168114801590611f6d5750611f6b8682611cf9565b155b15611f9e5760405163711bec9160e11b81526001600160a01b03808316600483015287166024820152604401610b54565b610bd886868686866123b9565b6000611fb783836115ca565b6120375760008381526003602090815260408083206001600160a01b03861684529091529020805460ff19166001179055611fef3390565b6001600160a01b0316826001600160a01b0316847f2f8788117e7eff1d82e926ec794901d17c78024a50270940304540a733656f0d60405160405180910390a4506001610a4a565b506000610a4a565b60026005540361206257604051633ee5aeb560e01b815260040160405180910390fd5b6002600555565b600061207583836115ca565b156120375760008381526003602090815260408083206001600160a01b0386168085529252808320805460ff1916905551339286917ff6391f5c32d9c69d2a47ea670b442974b53935d1edc7fd64eb21e047a839171b9190a4506001610a4a565b6001600160a01b0383166120ff57604051626a0d4560e21b815260006004820152602401610b54565b610f31836000848460405180602001604052806000815250612366565b6001600160a01b03841661214657604051632bfa23e760e11b815260006004820152602401610b54565b60408051600180825260208201869052818301908152606082018590526080820190925290610bd8600087848487612366565b6001600160a01b0382166121a25760405162ced3e160e81b815260006004820152602401610b54565b6001600160a01b03838116600081815260016020908152604080832094871680845294825291829020805460ff191686151590811790915591519182527f17307eab39ab6107e8899845ad3d59bd9653f200f220920489ca2b5937696c31910160405180910390a3505050565b336001600160a01b0386168114801590612230575061222e8682611cf9565b155b156122615760405163711bec9160e11b81526001600160a01b03808316600483015287166024820152604401610b54565b610bd88686868686612419565b6001600160a01b03831661229757604051626a0d4560e21b815260006004820152602401610b54565b604080516001808252602082018590528183019081526060820184905260a082019092526000608082018181529192916122d691879185908590612366565b5050505050565b60006001600160e01b03198216636cdb3d1360e11b148061230e57506001600160e01b031982166303a24d0760e21b145b80610a4a57506301ffc9a760e01b6001600160e01b0319831614610a4a565b61233782826115ca565b610efa5760405163e2517d3f60e01b81526001600160a01b038216600482015260248101839052604401610b54565b6123728585858561249e565b6001600160a01b038416156122d657825133906001036123ab57602084810151908401516123a48389898585896126bb565b5050610bd8565b610bd88187878787876127df565b6001600160a01b0384166123e357604051632bfa23e760e11b815260006004820152602401610b54565b6001600160a01b03851661240c57604051626a0d4560e21b815260006004820152602401610b54565b6122d68585858585612366565b6001600160a01b03841661244357604051632bfa23e760e11b815260006004820152602401610b54565b6001600160a01b03851661246c57604051626a0d4560e21b815260006004820152602401610b54565b60408051600180825260208201869052818301908152606082018590526080820190925290610d7e8787848487612366565b80518251146124cd5781518151604051635b05999160e01b815260048101929092526024820152604401610b54565b3360005b83518110156125dc576020818102858101820151908501909101516001600160a01b03881615612584576000828152602081815260408083206001600160a01b038c1684529091529020548181101561255d576040516303dee4c560e01b81526001600160a01b038a166004820152602481018290526044810183905260648101849052608401610b54565b6000838152602081815260408083206001600160a01b038d16845290915290209082900390555b6001600160a01b038716156125c9576000828152602081815260408083206001600160a01b038b168452909152812080548392906125c39084906128de565b90915550505b5050806125d59061316b565b90506124d1565b50825160010361265d5760208301516000906020840151909150856001600160a01b0316876001600160a01b0316846001600160a01b03167fc3d58168c5ae7397731d063d5bbf3d657854427343f4c083240f7aacaa2d0f62858560405161264e929190918252602082015260400190565b60405180910390a450506122d6565b836001600160a01b0316856001600160a01b0316826001600160a01b03167f4a39dc06d4c0dbc64b70af90fd698a233a518aa5d07e595d983b8c0526c8f7fb86866040516126ac92919061323c565b60405180910390a45050505050565b6001600160a01b0384163b15610bd85760405163f23a6e6160e01b81526001600160a01b0385169063f23a6e61906126ff908990899088908890889060040161326a565b6020604051808303816000875af192505050801561273a575060408051601f3d908101601f19168201909252612737918101906132af565b60015b6127a3573d808015612768576040519150601f19603f3d011682016040523d82523d6000602084013e61276d565b606091505b50805160000361279b57604051632bfa23e760e11b81526001600160a01b0386166004820152602401610b54565b805181602001fd5b6001600160e01b0319811663f23a6e6160e01b14610d7e57604051632bfa23e760e11b81526001600160a01b0386166004820152602401610b54565b6001600160a01b0384163b15610bd85760405163bc197c8160e01b81526001600160a01b0385169063bc197c819061282390899089908890889088906004016132cc565b6020604051808303816000875af192505050801561285e575060408051601f3d908101601f1916820190925261285b918101906132af565b60015b61288c573d808015612768576040519150601f19603f3d011682016040523d82523d6000602084013e61276d565b6001600160e01b0319811663bc197c8160e01b14610d7e57604051632bfa23e760e11b81526001600160a01b0386166004820152602401610b54565b634e487b7160e01b600052601160045260246000fd5b80820180821115610a4a57610a4a6128c8565b6001600160a01b0381168114611ac657600080fd5b6000806040838503121561291957600080fd5b8235612924816128f1565b946020939093013593505050565b6001600160e01b031981168114611ac657600080fd5b60006020828403121561295a57600080fd5b8135610c4c81612932565b60006020828403121561297757600080fd5b5035919050565b6000815180845260005b818110156129a457602081850181015186830182015201612988565b506000602082860101526020601f19601f83011685010191505092915050565b602081526000610c4c602083018461297e565b634e487b7160e01b600052604160045260246000fd5b604051601f8201601f1916810167ffffffffffffffff81118282101715612a1657612a166129d7565b604052919050565b600067ffffffffffffffff821115612a3857612a386129d7565b5060051b60200190565b600082601f830112612a5357600080fd5b81356020612a68612a6383612a1e565b6129ed565b82815260059290921b84018101918181019086841115612a8757600080fd5b8286015b84811015612aa25780358352918301918301612a8b565b509695505050505050565b600082601f830112612abe57600080fd5b813567ffffffffffffffff811115612ad857612ad86129d7565b612aeb601f8201601f19166020016129ed565b818152846020838601011115612b0057600080fd5b816020850160208301376000918101602001919091529392505050565b60008060008060808587031215612b3357600080fd5b8435612b3e816128f1565b9350602085013567ffffffffffffffff80821115612b5b57600080fd5b612b6788838901612a42565b94506040870135915080821115612b7d57600080fd5b612b8988838901612a42565b93506060870135915080821115612b9f57600080fd5b50612bac87828801612aad565b91505092959194509250565b600080600080600060a08688031215612bd057600080fd5b8535612bdb816128f1565b94506020860135612beb816128f1565b9350604086013567ffffffffffffffff80821115612c0857600080fd5b612c1489838a01612a42565b94506060880135915080821115612c2a57600080fd5b612c3689838a01612a42565b93506080880135915080821115612c4c57600080fd5b50612c5988828901612aad565b9150509295509295909350565b60008060408385031215612c7957600080fd5b823591506020830135612c8b816128f1565b809150509250929050565b600060208284031215612ca857600080fd5b8135610c4c816128f1565b80358015158114612cc357600080fd5b919050565b60008060008060008060c08789031215612ce157600080fd5b86359550612cf160208801612cb3565b9450612cff60408801612cb3565b9350612d0d60608801612cb3565b92506080870135915060a087013590509295509295509295565b60008060408385031215612d3a57600080fd5b823567ffffffffffffffff80821115612d5257600080fd5b818501915085601f830112612d6657600080fd5b81356020612d76612a6383612a1e565b82815260059290921b84018101918181019089841115612d9557600080fd5b948201945b83861015612dbc578535612dad816128f1565b82529482019490820190612d9a565b96505086013592505080821115612dd257600080fd5b50612ddf85828601612a42565b9150509250929050565b600081518084526020808501945080840160005b83811015612e1957815187529582019590820190600101612dfd565b509495945050505050565b602081526000610c4c6020830184612de9565b600080600060608486031215612e4c57600080fd5b8335612e57816128f1565b9250602084013567ffffffffffffffff80821115612e7457600080fd5b612e8087838801612a42565b93506040860135915080821115612e9657600080fd5b50612ea386828701612a42565b9150509250925092565b60008060008060808587031215612ec357600080fd5b8435612ece816128f1565b93506020850135925060408501359150606085013567ffffffffffffffff811115612ef857600080fd5b612bac87828801612aad565b60008060408385031215612f1757600080fd5b50508035926020909101359150565b600080600060408486031215612f3b57600080fd5b833567ffffffffffffffff80821115612f5357600080fd5b818601915086601f830112612f6757600080fd5b813581811115612f7657600080fd5b8760208260051b8501011115612f8b57600080fd5b60209283019550935050840135612fa1816128f1565b809150509250925092565b60008060408385031215612fbf57600080fd5b8235612fca816128f1565b9150612fd860208401612cb3565b90509250929050565b60008060408385031215612ff457600080fd5b8235612fff816128f1565b91506020830135612c8b816128f1565b600080600080600060a0868803121561302757600080fd5b8535613032816128f1565b94506020860135613042816128f1565b93506040860135925060608601359150608086013567ffffffffffffffff81111561306c57600080fd5b612c5988828901612aad565b60008060006060848603121561308d57600080fd5b8335613098816128f1565b95602085013595506040909401359392505050565b600181811c908216806130c157607f821691505b6020821081036130e157634e487b7160e01b600052602260045260246000fd5b50919050565b6020808252601f908201527f45564d417574683a206163636f756e7420697320626c61636b6c697374656400604082015260600190565b634e487b7160e01b600052603260045260246000fd5b60208082526019908201527f45564d417574683a20746f6b656e206e6f742061637469766500000000000000604082015260600190565b60006001820161317d5761317d6128c8565b5060010190565b60208082526028908201527f45564d417574683a2063616e6e6f7420776974686472617720746f207a65726f604082015267206164647265737360c01b606082015260800190565b60208082526026908201527f45564d417574683a20616d6f756e74206d75737420626520677265617465722060408201526507468616e20360d41b606082015260800190565b8082028115828204841417610a4a57610a4a6128c8565b81810381811115610a4a57610a4a6128c8565b60408152600061324f6040830185612de9565b82810360208401526132618185612de9565b95945050505050565b6001600160a01b03868116825285166020820152604081018490526060810183905260a0608082018190526000906132a49083018461297e565b979650505050505050565b6000602082840312156132c157600080fd5b8151610c4c81612932565b6001600160a01b0386811682528516602082015260a0604082018190526000906132f890830186612de9565b828103606084015261330a8186612de9565b9050828103608084015261331e818561297e565b9897505050505050505056fea2646970667358221220ca2f961538fe3c181394c4ba2355a68770146fee8f81c8f7a87befcc0f196f4164736f6c63430008140033",
  "linkReferences": {},
  "deployedLinkReferences": {}
}