{
  "_format": "hh-sol-artifact-1",
  "contractName": "EVMAuthBaseERC1155",
  "sourceName": "contracts/EVMAuthBaseERC1155.sol",
  "abi": [
    {
      "inputs": [
        {
          "internalType": "string",
          "name": "uri",
          "type": "string"
        },
        {
          "internalType": "address",
          "name": "initialAdmin",
          "type": "address"
        }
      ],
      "stateMutability": "nonpayable",
      "type": "constructor"
    },
    {
      "inputs": [],
      "name": "AccessControlBadConfirmation",
      "type": "error"
    },
    {
      "inputs": [
        {
          "internalType": "address",
          "name": "account",
          "type": "address"
        },
        {
          "internalType": "bytes32",
          "name": "neededRole",
          "type": "bytes32"
        }
      ],
      "name": "AccessControlUnauthorizedAccount",
      "type": "error"
    },
    {
      "inputs": [
        {
          "internalType": "address",
          "name": "sender",
          "type": "address"
        },
        {
          "internalType": "uint256",
          "name": "balance",
          "type": "uint256"
        },
        {
          "internalType": "uint256",
          "name": "needed",
          "type": "uint256"
        },
        {
          "internalType": "uint256",
          "name": "tokenId",
          "type": "uint256"
        }
      ],
      "name": "ERC1155InsufficientBalance",
      "type": "error"
    },
    {
      "inputs": [
        {
          "internalType": "address",
          "name": "approver",
          "type": "address"
        }
      ],
      "name": "ERC1155InvalidApprover",
      "type": "error"
    },
    {
      "inputs": [
        {
          "internalType": "uint256",
          "name": "idsLength",
          "type": "uint256"
        },
        {
          "internalType": "uint256",
          "name": "valuesLength",
          "type": "uint256"
        }
      ],
      "name": "ERC1155InvalidArrayLength",
      "type": "error"
    },
    {
      "inputs": [
        {
          "internalType": "address",
          "name": "operator",
          "type": "address"
        }
      ],
      "name": "ERC1155InvalidOperator",
      "type": "error"
    },
    {
      "inputs": [
        {
          "internalType": "address",
          "name": "receiver",
          "type": "address"
        }
      ],
      "name": "ERC1155InvalidReceiver",
      "type": "error"
    },
    {
      "inputs": [
        {
          "internalType": "address",
          "name": "sender",
          "type": "address"
        }
      ],
      "name": "ERC1155InvalidSender",
      "type": "error"
    },
    {
      "inputs": [
        {
          "internalType": "address",
          "name": "operator",
          "type": "address"
        },
        {
          "internalType": "address",
          "name": "owner",
          "type": "address"
        }
      ],
      "name": "ERC1155MissingApprovalForAll",
      "type": "error"
    },
    {
      "inputs": [],
      "name": "ReentrancyGuardReentrantCall",
      "type": "error"
    },
    {
      "anonymous": false,
      "inputs": [
        {
          "indexed": true,
          "internalType": "address",
          "name": "account",
          "type": "address"
        }
      ],
      "name": "AccountBlacklisted",
      "type": "event"
    },
    {
      "anonymous": false,
      "inputs": [
        {
          "indexed": true,
          "internalType": "address",
          "name": "account",
          "type": "address"
        }
      ],
      "name": "AccountUnblacklisted",
      "type": "event"
    },
    {
      "anonymous": false,
      "inputs": [
        {
          "indexed": true,
          "internalType": "address",
          "name": "account",
          "type": "address"
        },
        {
          "indexed": true,
          "internalType": "address",
          "name": "operator",
          "type": "address"
        },
        {
          "indexed": false,
          "internalType": "bool",
          "name": "approved",
          "type": "bool"
        }
      ],
      "name": "ApprovalForAll",
      "type": "event"
    },
    {
      "anonymous": false,
      "inputs": [
        {
          "indexed": true,
          "internalType": "bytes32",
          "name": "role",
          "type": "bytes32"
        },
        {
          "indexed": true,
          "internalType": "bytes32",
          "name": "previousAdminRole",
          "type": "bytes32"
        },
        {
          "indexed": true,
          "internalType": "bytes32",
          "name": "newAdminRole",
          "type": "bytes32"
        }
      ],
      "name": "RoleAdminChanged",
      "type": "event"
    },
    {
      "anonymous": false,
      "inputs": [
        {
          "indexed": true,
          "internalType": "bytes32",
          "name": "role",
          "type": "bytes32"
        },
        {
          "indexed": true,
          "internalType": "address",
          "name": "account",
          "type": "address"
        },
        {
          "indexed": true,
          "internalType": "address",
          "name": "sender",
          "type": "address"
        }
      ],
      "name": "RoleGranted",
      "type": "event"
    },
    {
      "anonymous": false,
      "inputs": [
        {
          "indexed": true,
          "internalType": "bytes32",
          "name": "role",
          "type": "bytes32"
        },
        {
          "indexed": true,
          "internalType": "address",
          "name": "account",
          "type": "address"
        },
        {
          "indexed": true,
          "internalType": "address",
          "name": "sender",
          "type": "address"
        }
      ],
      "name": "RoleRevoked",
      "type": "event"
    },
    {
      "anonymous": false,
      "inputs": [
        {
          "indexed": true,
          "internalType": "uint256",
          "name": "tokenId",
          "type": "uint256"
        },
        {
          "indexed": false,
          "internalType": "bool",
          "name": "active",
          "type": "bool"
        },
        {
          "indexed": false,
          "internalType": "bool",
          "name": "burnable",
          "type": "bool"
        },
        {
          "indexed": false,
          "internalType": "bool",
          "name": "transferable",
          "type": "bool"
        },
        {
          "indexed": false,
          "internalType": "uint256",
          "name": "price",
          "type": "uint256"
        },
        {
          "indexed": false,
          "internalType": "uint256",
          "name": "ttl",
          "type": "uint256"
        }
      ],
      "name": "TokenMetadataSet",
      "type": "event"
    },
    {
      "anonymous": false,
      "inputs": [
        {
          "indexed": true,
          "internalType": "address",
          "name": "operator",
          "type": "address"
        },
        {
          "indexed": true,
          "internalType": "address",
          "name": "from",
          "type": "address"
        },
        {
          "indexed": true,
          "internalType": "address",
          "name": "to",
          "type": "address"
        },
        {
          "indexed": false,
          "internalType": "uint256[]",
          "name": "ids",
          "type": "uint256[]"
        },
        {
          "indexed": false,
          "internalType": "uint256[]",
          "name": "values",
          "type": "uint256[]"
        }
      ],
      "name": "TransferBatch",
      "type": "event"
    },
    {
      "anonymous": false,
      "inputs": [
        {
          "indexed": true,
          "internalType": "address",
          "name": "operator",
          "type": "address"
        },
        {
          "indexed": true,
          "internalType": "address",
          "name": "from",
          "type": "address"
        },
        {
          "indexed": true,
          "internalType": "address",
          "name": "to",
          "type": "address"
        },
        {
          "indexed": false,
          "internalType": "uint256",
          "name": "id",
          "type": "uint256"
        },
        {
          "indexed": false,
          "internalType": "uint256",
          "name": "value",
          "type": "uint256"
        }
      ],
      "name": "TransferSingle",
      "type": "event"
    },
    {
      "anonymous": false,
      "inputs": [
        {
          "indexed": false,
          "internalType": "string",
          "name": "value",
          "type": "string"
        },
        {
          "indexed": true,
          "internalType": "uint256",
          "name": "id",
          "type": "uint256"
        }
      ],
      "name": "URI",
      "type": "event"
    },
    {
      "inputs": [],
      "name": "BLACKLIST_ROLE",
      "outputs": [
        {
          "internalType": "bytes32",
          "name": "",
          "type": "bytes32"
        }
      ],
      "stateMutability": "view",
      "type": "function"
    },
    {
      "inputs": [],
      "name": "BURNER_ROLE",
      "outputs": [
        {
          "internalType": "bytes32",
          "name": "",
          "type": "bytes32"
        }
      ],
      "stateMutability": "view",
      "type": "function"
    },
    {
      "inputs": [],
      "name": "DEFAULT_ADMIN_ROLE",
      "outputs": [
        {
          "internalType": "bytes32",
          "name": "",
          "type": "bytes32"
        }
      ],
      "stateMutability": "view",
      "type": "function"
    },
    {
      "inputs": [],
      "name": "FINANCE_ROLE",
      "outputs": [
        {
          "internalType": "bytes32",
          "name": "",
          "type": "bytes32"
        }
      ],
      "stateMutability": "view",
      "type": "function"
    },
    {
      "inputs": [],
      "name": "MINTER_ROLE",
      "outputs": [
        {
          "internalType": "bytes32",
          "name": "",
          "type": "bytes32"
        }
      ],
      "stateMutability": "view",
      "type": "function"
    },
    {
      "inputs": [],
      "name": "TOKEN_MANAGER_ROLE",
      "outputs": [
        {
          "internalType": "bytes32",
          "name": "",
          "type": "bytes32"
        }
      ],
      "stateMutability": "view",
      "type": "function"
    },
    {
      "inputs": [
        {
          "internalType": "address",
          "name": "account",
          "type": "address"
        },
        {
          "internalType": "uint256",
          "name": "id",
          "type": "uint256"
        }
      ],
      "name": "balanceOf",
      "outputs": [
        {
          "internalType": "uint256",
          "name": "",
          "type": "uint256"
        }
      ],
      "stateMutability": "view",
      "type": "function"
    },
    {
      "inputs": [
        {
          "internalType": "address[]",
          "name": "accounts",
          "type": "address[]"
        },
        {
          "internalType": "uint256[]",
          "name": "ids",
          "type": "uint256[]"
        }
      ],
      "name": "balanceOfBatch",
      "outputs": [
        {
          "internalType": "uint256[]",
          "name": "",
          "type": "uint256[]"
        }
      ],
      "stateMutability": "view",
      "type": "function"
    },
    {
      "inputs": [
        {
          "internalType": "address",
          "name": "account",
          "type": "address"
        }
      ],
      "name": "blacklistAccount",
      "outputs": [],
      "stateMutability": "nonpayable",
      "type": "function"
    },
    {
      "inputs": [
        {
          "internalType": "address",
          "name": "from",
          "type": "address"
        },
        {
          "internalType": "uint256",
          "name": "tokenId",
          "type": "uint256"
        },
        {
          "internalType": "uint256",
          "name": "amount",
          "type": "uint256"
        }
      ],
      "name": "burn",
      "outputs": [],
      "stateMutability": "nonpayable",
      "type": "function"
    },
    {
      "inputs": [
        {
          "internalType": "address",
          "name": "from",
          "type": "address"
        },
        {
          "internalType": "uint256[]",
          "name": "tokenIds",
          "type": "uint256[]"
        },
        {
          "internalType": "uint256[]",
          "name": "amounts",
          "type": "uint256[]"
        }
      ],
      "name": "burnBatch",
      "outputs": [],
      "stateMutability": "nonpayable",
      "type": "function"
    },
    {
      "inputs": [],
      "name": "getNextTokenId",
      "outputs": [
        {
          "internalType": "uint256",
          "name": "",
          "type": "uint256"
        }
      ],
      "stateMutability": "view",
      "type": "function"
    },
    {
      "inputs": [
        {
          "internalType": "bytes32",
          "name": "role",
          "type": "bytes32"
        }
      ],
      "name": "getRoleAdmin",
      "outputs": [
        {
          "internalType": "bytes32",
          "name": "",
          "type": "bytes32"
        }
      ],
      "stateMutability": "view",
      "type": "function"
    },
    {
      "inputs": [
        {
          "internalType": "uint256",
          "name": "tokenId",
          "type": "uint256"
        }
      ],
      "name": "getTokenPrice",
      "outputs": [
        {
          "internalType": "uint256",
          "name": "",
          "type": "uint256"
        }
      ],
      "stateMutability": "view",
      "type": "function"
    },
    {
      "inputs": [
        {
          "internalType": "uint256",
          "name": "tokenId",
          "type": "uint256"
        }
      ],
      "name": "getTokenTTL",
      "outputs": [
        {
          "internalType": "uint256",
          "name": "",
          "type": "uint256"
        }
      ],
      "stateMutability": "view",
      "type": "function"
    },
    {
      "inputs": [
        {
          "internalType": "bytes32",
          "name": "role",
          "type": "bytes32"
        },
        {
          "internalType": "address",
          "name": "account",
          "type": "address"
        }
      ],
      "name": "grantRole",
      "outputs": [],
      "stateMutability": "nonpayable",
      "type": "function"
    },
    {
      "inputs": [
        {
          "internalType": "bytes32[]",
          "name": "roles",
          "type": "bytes32[]"
        },
        {
          "internalType": "address",
          "name": "account",
          "type": "address"
        }
      ],
      "name": "grantRoles",
      "outputs": [],
      "stateMutability": "nonpayable",
      "type": "function"
    },
    {
      "inputs": [
        {
          "internalType": "bytes32",
          "name": "role",
          "type": "bytes32"
        },
        {
          "internalType": "address",
          "name": "account",
          "type": "address"
        }
      ],
      "name": "hasRole",
      "outputs": [
        {
          "internalType": "bool",
          "name": "",
          "type": "bool"
        }
      ],
      "stateMutability": "view",
      "type": "function"
    },
    {
      "inputs": [
        {
          "internalType": "address",
          "name": "account",
          "type": "address"
        },
        {
          "internalType": "address",
          "name": "operator",
          "type": "address"
        }
      ],
      "name": "isApprovedForAll",
      "outputs": [
        {
          "internalType": "bool",
          "name": "",
          "type": "bool"
        }
      ],
      "stateMutability": "view",
      "type": "function"
    },
    {
      "inputs": [
        {
          "internalType": "address",
          "name": "account",
          "type": "address"
        }
      ],
      "name": "isBlacklisted",
      "outputs": [
        {
          "internalType": "bool",
          "name": "",
          "type": "bool"
        }
      ],
      "stateMutability": "view",
      "type": "function"
    },
    {
      "inputs": [
        {
          "internalType": "uint256",
          "name": "tokenId",
          "type": "uint256"
        }
      ],
      "name": "isTokenActive",
      "outputs": [
        {
          "internalType": "bool",
          "name": "",
          "type": "bool"
        }
      ],
      "stateMutability": "view",
      "type": "function"
    },
    {
      "inputs": [
        {
          "internalType": "uint256",
          "name": "tokenId",
          "type": "uint256"
        }
      ],
      "name": "isTokenBurnable",
      "outputs": [
        {
          "internalType": "bool",
          "name": "",
          "type": "bool"
        }
      ],
      "stateMutability": "view",
      "type": "function"
    },
    {
      "inputs": [
        {
          "internalType": "uint256",
          "name": "tokenId",
          "type": "uint256"
        }
      ],
      "name": "isTokenTransferable",
      "outputs": [
        {
          "internalType": "bool",
          "name": "",
          "type": "bool"
        }
      ],
      "stateMutability": "view",
      "type": "function"
    },
    {
      "inputs": [
        {
          "internalType": "address",
          "name": "to",
          "type": "address"
        },
        {
          "internalType": "uint256",
          "name": "tokenId",
          "type": "uint256"
        },
        {
          "internalType": "uint256",
          "name": "amount",
          "type": "uint256"
        },
        {
          "internalType": "bytes",
          "name": "data",
          "type": "bytes"
        }
      ],
      "name": "mint",
      "outputs": [],
      "stateMutability": "nonpayable",
      "type": "function"
    },
    {
      "inputs": [
        {
          "internalType": "address",
          "name": "to",
          "type": "address"
        },
        {
          "internalType": "uint256[]",
          "name": "tokenIds",
          "type": "uint256[]"
        },
        {
          "internalType": "uint256[]",
          "name": "amounts",
          "type": "uint256[]"
        },
        {
          "internalType": "bytes",
          "name": "data",
          "type": "bytes"
        }
      ],
      "name": "mintBatch",
      "outputs": [],
      "stateMutability": "nonpayable",
      "type": "function"
    },
    {
      "inputs": [
        {
          "internalType": "bytes32",
          "name": "role",
          "type": "bytes32"
        },
        {
          "internalType": "address",
          "name": "callerConfirmation",
          "type": "address"
        }
      ],
      "name": "renounceRole",
      "outputs": [],
      "stateMutability": "nonpayable",
      "type": "function"
    },
    {
      "inputs": [
        {
          "internalType": "bytes32",
          "name": "role",
          "type": "bytes32"
        },
        {
          "internalType": "address",
          "name": "account",
          "type": "address"
        }
      ],
      "name": "revokeRole",
      "outputs": [],
      "stateMutability": "nonpayable",
      "type": "function"
    },
    {
      "inputs": [
        {
          "internalType": "bytes32[]",
          "name": "roles",
          "type": "bytes32[]"
        },
        {
          "internalType": "address",
          "name": "account",
          "type": "address"
        }
      ],
      "name": "revokeRoles",
      "outputs": [],
      "stateMutability": "nonpayable",
      "type": "function"
    },
    {
      "inputs": [
        {
          "internalType": "address",
          "name": "from",
          "type": "address"
        },
        {
          "internalType": "address",
          "name": "to",
          "type": "address"
        },
        {
          "internalType": "uint256[]",
          "name": "ids",
          "type": "uint256[]"
        },
        {
          "internalType": "uint256[]",
          "name": "amounts",
          "type": "uint256[]"
        },
        {
          "internalType": "bytes",
          "name": "data",
          "type": "bytes"
        }
      ],
      "name": "safeBatchTransferFrom",
      "outputs": [],
      "stateMutability": "nonpayable",
      "type": "function"
    },
    {
      "inputs": [
        {
          "internalType": "address",
          "name": "from",
          "type": "address"
        },
        {
          "internalType": "address",
          "name": "to",
          "type": "address"
        },
        {
          "internalType": "uint256",
          "name": "id",
          "type": "uint256"
        },
        {
          "internalType": "uint256",
          "name": "amount",
          "type": "uint256"
        },
        {
          "internalType": "bytes",
          "name": "data",
          "type": "bytes"
        }
      ],
      "name": "safeTransferFrom",
      "outputs": [],
      "stateMutability": "nonpayable",
      "type": "function"
    },
    {
      "inputs": [
        {
          "internalType": "address",
          "name": "operator",
          "type": "address"
        },
        {
          "internalType": "bool",
          "name": "approved",
          "type": "bool"
        }
      ],
      "name": "setApprovalForAll",
      "outputs": [],
      "stateMutability": "nonpayable",
      "type": "function"
    },
    {
      "inputs": [
        {
          "internalType": "uint256",
          "name": "tokenId",
          "type": "uint256"
        },
        {
          "internalType": "bool",
          "name": "active",
          "type": "bool"
        },
        {
          "internalType": "bool",
          "name": "burnable",
          "type": "bool"
        },
        {
          "internalType": "bool",
          "name": "transferable",
          "type": "bool"
        },
        {
          "internalType": "uint256",
          "name": "price",
          "type": "uint256"
        },
        {
          "internalType": "uint256",
          "name": "ttl",
          "type": "uint256"
        }
      ],
      "name": "setTokenMetadata",
      "outputs": [],
      "stateMutability": "nonpayable",
      "type": "function"
    },
    {
      "inputs": [
        {
          "internalType": "bytes4",
          "name": "interfaceId",
          "type": "bytes4"
        }
      ],
      "name": "supportsInterface",
      "outputs": [
        {
          "internalType": "bool",
          "name": "",
          "type": "bool"
        }
      ],
      "stateMutability": "view",
      "type": "function"
    },
    {
      "inputs": [
        {
          "internalType": "uint256",
          "name": "",
          "type": "uint256"
        }
      ],
      "name": "tokenMetadata",
      "outputs": [
        {
          "internalType": "bool",
          "name": "active",
          "type": "bool"
        },
        {
          "internalType": "bool",
          "name": "burnable",
          "type": "bool"
        },
        {
          "internalType": "bool",
          "name": "transferable",
          "type": "bool"
        },
        {
          "internalType": "uint256",
          "name": "price",
          "type": "uint256"
        },
        {
          "internalType": "uint256",
          "name": "ttl",
          "type": "uint256"
        }
      ],
      "stateMutability": "view",
      "type": "function"
    },
    {
      "inputs": [
        {
          "internalType": "address",
          "name": "account",
          "type": "address"
        }
      ],
      "name": "unblacklistAccount",
      "outputs": [],
      "stateMutability": "nonpayable",
      "type": "function"
    },
    {
      "inputs": [
        {
          "internalType": "uint256",
          "name": "",
          "type": "uint256"
        }
      ],
      "name": "uri",
      "outputs": [
        {
          "internalType": "string",
          "name": "",
          "type": "string"
        }
      ],
      "stateMutability": "view",
      "type": "function"
    }
  ],
  "bytecode": "0x60806040523480156200001157600080fd5b506040516200288a3803806200288a833981016040819052620000349162000238565b8082620000418162000140565b506200004f60008262000152565b506200007c7f22435ed027edf5f902dc0093fbc24cdb50c05b5fd5f311b78c67c1cbaff60e138262000152565b50620000a97f940d6b1946ff1d2b5a9f1909219c3c81a370804b5ba0f91ec0828c99a2e6a6818262000152565b50620000d67f74f7a545c65c11839a48d7453738b30c295408df2d944516167556759ddc6d068262000152565b50620001037f9f2df0fed2c77648de5860a4cc508cd0818c85b8b8a1ab4ceeef8d981c8956a68262000152565b50620001307f3c11d16cbaffd01df69ce1c404f6340ee057498f5f00246190ea54220576a8488262000152565b50506001600555506200047b9050565b60026200014e8282620003af565b5050565b60008281526003602090815260408083206001600160a01b038516845290915281205460ff16620001fb5760008381526003602090815260408083206001600160a01b03861684529091529020805460ff19166001179055620001b23390565b6001600160a01b0316826001600160a01b0316847f2f8788117e7eff1d82e926ec794901d17c78024a50270940304540a733656f0d60405160405180910390a4506001620001ff565b5060005b92915050565b634e487b7160e01b600052604160045260246000fd5b80516001600160a01b03811681146200023357600080fd5b919050565b600080604083850312156200024c57600080fd5b82516001600160401b03808211156200026457600080fd5b818501915085601f8301126200027957600080fd5b8151818111156200028e576200028e62000205565b604051601f8201601f19908116603f01168101908382118183101715620002b957620002b962000205565b81604052828152602093508884848701011115620002d657600080fd5b600091505b82821015620002fa5784820184015181830185015290830190620002db565b6000848483010152809650505050620003158186016200021b565b925050509250929050565b600181811c908216806200033557607f821691505b6020821081036200035657634e487b7160e01b600052602260045260246000fd5b50919050565b601f821115620003aa57600081815260208120601f850160051c81016020861015620003855750805b601f850160051c820191505b81811015620003a65782815560010162000391565b5050505b505050565b81516001600160401b03811115620003cb57620003cb62000205565b620003e381620003dc845462000320565b846200035c565b602080601f8311600181146200041b5760008415620004025750858301515b600019600386901b1c1916600185901b178555620003a6565b600085815260208120601f198616915b828110156200044c578886015182559484019460019091019084016200042b565b50858210156200046b5787850151600019600388901b60f8161c191681555b5050505050600190811b01905550565b6123ff806200048b6000396000f3fe608060405234801561001057600080fd5b506004361061021b5760003560e01c806387adc7b511610125578063d37b34d7116100ad578063e985e9c51161007c578063e985e9c5146105c7578063f242432a146105da578063f5298aca146105ed578063fcd7627e14610600578063fe575a871461061357600080fd5b8063d37b34d714610551578063d539139314610564578063d547741f1461058b578063ddaec2051461059e57600080fd5b8063a217fddf116100f4578063a217fddf146104e4578063a22cb465146104ec578063c2840e60146104ff578063c457fb3714610526578063caa0f92a1461054957600080fd5b806387adc7b51461047857806391d148541461049b578063988360a3146104ae5780639b0b92ef146104c157600080fd5b8063349b5954116101a85780636914db60116101775780636914db60146103a25780636b20c454146104175780636d7331ed1461042a578063731133e91461043d5780637827136b1461045057600080fd5b8063349b59541461033557806336568abe1461035c57806341106c5b1461036f5780634e1273f41461038257600080fd5b80631f7fdffa116101ef5780631f7fdffa146102b0578063248a9ca3146102c5578063282c51f3146102e85780632eb2c2d61461030f5780632f2ff15d1461032257600080fd5b8062fdd58e1461022057806301ffc9a7146102465780630e89341c1461026957806319afe46314610289575b600080fd5b61023361022e366004611ab6565b61063f565b6040519081526020015b60405180910390f35b610259610254366004611af6565b610667565b604051901515815260200161023d565b61027c610277366004611b1a565b610672565b60405161023d9190611b79565b6102337f22435ed027edf5f902dc0093fbc24cdb50c05b5fd5f311b78c67c1cbaff60e1381565b6102c36102be366004611cd2565b610706565b005b6102336102d3366004611b1a565b60009081526003602052604090206001015490565b6102337f3c11d16cbaffd01df69ce1c404f6340ee057498f5f00246190ea54220576a84881565b6102c361031d366004611d6b565b610823565b6102c3610330366004611e15565b610957565b6102337f940d6b1946ff1d2b5a9f1909219c3c81a370804b5ba0f91ec0828c99a2e6a68181565b6102c361036a366004611e15565b610982565b6102c361037d366004611e51565b6109ba565b610395610390366004611eb0565b610ad6565b60405161023d9190611fab565b6103e66103b0366004611b1a565b60066020526000908152604090208054600182015460029092015460ff8083169361010084048216936201000090049091169185565b60405161023d9594939291909415158552921515602085015290151560408401526060830152608082015260a00190565b6102c3610425366004611fbe565b610bab565b6102c3610438366004612032565b610c88565b6102c361044b36600461204d565b610cfc565b61025961045e366004611b1a565b600090815260066020526040902054610100900460ff1690565b610233610486366004611b1a565b60009081526006602052604090206002015490565b6102596104a9366004611e15565b610dc7565b6102c36104bc3660046120a2565b610df2565b6102596104cf366004611b1a565b60009081526006602052604090205460ff1690565b610233600081565b6102c36104fa366004612126565b610e31565b6102337f74f7a545c65c11839a48d7453738b30c295408df2d944516167556759ddc6d0681565b610233610534366004611b1a565b60009081526006602052604090206001015490565b610233610e40565b6102c361055f366004612032565b610e56565b6102337f9f2df0fed2c77648de5860a4cc508cd0818c85b8b8a1ab4ceeef8d981c8956a681565b6102c3610599366004611e15565b610ecd565b6102596105ac366004611b1a565b60009081526006602052604090205462010000900460ff1690565b6102596105d5366004612150565b610ef2565b6102c36105e836600461217a565b610f20565b6102c36105fb3660046121df565b611007565b6102c361060e3660046120a2565b61109f565b610259610621366004612032565b6001600160a01b031660009081526004602052604090205460ff1690565b6000818152602081815260408083206001600160a01b03861684529091529020545b92915050565b6000610661826110de565b60606002805461068190612212565b80601f01602080910402602001604051908101604052809291908181526020018280546106ad90612212565b80156106fa5780601f106106cf576101008083540402835291602001916106fa565b820191906000526020600020905b8154815290600101906020018083116106dd57829003601f168201915b50505050509050919050565b7f9f2df0fed2c77648de5860a4cc508cd0818c85b8b8a1ab4ceeef8d981c8956a661073081611103565b6001600160a01b038516600090815260046020526040902054859060ff16156107745760405162461bcd60e51b815260040161076b9061224c565b60405180910390fd5b60005b855181101561080e576006600087838151811061079657610796612283565b60209081029190910181015182528101919091526040016000205460ff166107fc5760405162461bcd60e51b815260206004820152601960248201527845564d417574683a20746f6b656e206e6f742061637469766560381b604482015260640161076b565b80610806816122af565b915050610777565b5061081b86868686611110565b505050505050565b6001600160a01b038516600090815260046020526040902054859060ff161561085e5760405162461bcd60e51b815260040161076b9061224c565b6001600160a01b038516600090815260046020526040902054859060ff16156108995760405162461bcd60e51b815260040161076b9061224c565b60005b855181101561094057600660008783815181106108bb576108bb612283565b6020026020010151815260200190815260200160002060000160029054906101000a900460ff1661092e5760405162461bcd60e51b815260206004820152601f60248201527f45564d417574683a20746f6b656e206e6f74207472616e7366657261626c6500604482015260640161076b565b80610938816122af565b91505061089c565b5061094e8787878787611148565b50505050505050565b60008281526003602052604090206001015461097281611103565b61097c83836111a7565b50505050565b6001600160a01b03811633146109ab5760405163334bd91960e11b815260040160405180910390fd5b6109b5828261123b565b505050565b7f74f7a545c65c11839a48d7453738b30c295408df2d944516167556759ddc6d066109e481611103565b6040805160a08101825287151581528615156020808301918252871515838501908152606084018881526080850188815260008e815260069094529286902094518554945192511515620100000262ff0000199315156101000261ff00199215159290921661ffff1990961695909517179190911692909217835590516001830155516002909101555187907fa429b4109cd80d9d9cac24f974f5ec3c34cf54fa620e24ab4c4697b9c98c4e1290610ac590899089908990899089909415158552921515602085015290151560408401526060830152608082015260a00190565b60405180910390a250505050505050565b60608151835114610b075781518351604051635b05999160e01b81526004810192909252602482015260440161076b565b6000835167ffffffffffffffff811115610b2357610b23611b8c565b604051908082528060200260200182016040528015610b4c578160200160208202803683370190505b50905060005b8451811015610ba357602080820286010151610b769060208084028701015161063f565b828281518110610b8857610b88612283565b6020908102919091010152610b9c816122af565b9050610b52565b509392505050565b7f3c11d16cbaffd01df69ce1c404f6340ee057498f5f00246190ea54220576a848610bd581611103565b60005b8351811015610c7c5760066000858381518110610bf757610bf7612283565b6020026020010151815260200190815260200160002060000160019054906101000a900460ff16610c6a5760405162461bcd60e51b815260206004820152601b60248201527f45564d417574683a20746f6b656e206e6f74206275726e61626c650000000000604482015260640161076b565b80610c74816122af565b915050610bd8565b5061097c8484846112a8565b7f22435ed027edf5f902dc0093fbc24cdb50c05b5fd5f311b78c67c1cbaff60e13610cb281611103565b6001600160a01b038216600081815260046020526040808220805460ff19169055517fedfd4cab3bb8cab50f21bee8952366416fc6dcc47db7e9cc3f7c07aca35569c39190a25050565b7f9f2df0fed2c77648de5860a4cc508cd0818c85b8b8a1ab4ceeef8d981c8956a6610d2681611103565b6001600160a01b038516600090815260046020526040902054859060ff1615610d615760405162461bcd60e51b815260040161076b9061224c565b60008581526006602052604090205460ff16610dbb5760405162461bcd60e51b815260206004820152601960248201527845564d417574683a20746f6b656e206e6f742061637469766560381b604482015260640161076b565b61081b868686866112ee565b60009182526003602090815260408084206001600160a01b0393909316845291905290205460ff1690565b60005b8281101561097c57610e1f848483818110610e1257610e12612283565b9050602002013583610ecd565b80610e29816122af565b915050610df5565b610e3c33838361134b565b5050565b60006007546001610e5191906122c8565b905090565b7f22435ed027edf5f902dc0093fbc24cdb50c05b5fd5f311b78c67c1cbaff60e13610e8081611103565b6001600160a01b038216600081815260046020526040808220805460ff19166001179055517f571f7b497ee6f6b62bf6238259f34ef72ad585355587cf9feed80bb4a2b5ce939190a25050565b600082815260036020526040902060010154610ee881611103565b61097c838361123b565b6001600160a01b03918216600090815260016020908152604080832093909416825291909152205460ff1690565b6001600160a01b038516600090815260046020526040902054859060ff1615610f5b5760405162461bcd60e51b815260040161076b9061224c565b6001600160a01b038516600090815260046020526040902054859060ff1615610f965760405162461bcd60e51b815260040161076b9061224c565b60008581526006602052604090205462010000900460ff16610ffa5760405162461bcd60e51b815260206004820152601f60248201527f45564d417574683a20746f6b656e206e6f74207472616e7366657261626c6500604482015260640161076b565b61094e87878787876113e1565b7f3c11d16cbaffd01df69ce1c404f6340ee057498f5f00246190ea54220576a84861103181611103565b600083815260066020526040902054610100900460ff166110945760405162461bcd60e51b815260206004820152601b60248201527f45564d417574683a20746f6b656e206e6f74206275726e61626c650000000000604482015260640161076b565b61097c848484611440565b60005b8281101561097c576110cc8484838181106110bf576110bf612283565b9050602002013583610957565b806110d6816122af565b9150506110a2565b60006001600160e01b03198216637965db0b60e01b14806106615750610661826114af565b61110d81336114ff565b50565b6001600160a01b03841661113a57604051632bfa23e760e11b81526000600482015260240161076b565b61097c600085858585611538565b336001600160a01b038616811480159061116957506111678682610ef2565b155b1561119a5760405163711bec9160e11b81526001600160a01b0380831660048301528716602482015260440161076b565b61081b868686868661158b565b60006111b38383610dc7565b6112335760008381526003602090815260408083206001600160a01b03861684529091529020805460ff191660011790556111eb3390565b6001600160a01b0316826001600160a01b0316847f2f8788117e7eff1d82e926ec794901d17c78024a50270940304540a733656f0d60405160405180910390a4506001610661565b506000610661565b60006112478383610dc7565b156112335760008381526003602090815260408083206001600160a01b0386168085529252808320805460ff1916905551339286917ff6391f5c32d9c69d2a47ea670b442974b53935d1edc7fd64eb21e047a839171b9190a4506001610661565b6001600160a01b0383166112d157604051626a0d4560e21b81526000600482015260240161076b565b6109b5836000848460405180602001604052806000815250611538565b6001600160a01b03841661131857604051632bfa23e760e11b81526000600482015260240161076b565b6040805160018082526020820186905281830190815260608201859052608082019092529061081b600087848487611538565b6001600160a01b0382166113745760405162ced3e160e81b81526000600482015260240161076b565b6001600160a01b03838116600081815260016020908152604080832094871680845294825291829020805460ff191686151590811790915591519182527f17307eab39ab6107e8899845ad3d59bd9653f200f220920489ca2b5937696c31910160405180910390a3505050565b336001600160a01b038616811480159061140257506114008682610ef2565b155b156114335760405163711bec9160e11b81526001600160a01b0380831660048301528716602482015260440161076b565b61081b86868686866115eb565b6001600160a01b03831661146957604051626a0d4560e21b81526000600482015260240161076b565b604080516001808252602082018590528183019081526060820184905260a082019092526000608082018181529192916114a891879185908590611538565b5050505050565b60006001600160e01b03198216636cdb3d1360e11b14806114e057506001600160e01b031982166303a24d0760e21b145b8061066157506301ffc9a760e01b6001600160e01b0319831614610661565b6115098282610dc7565b610e3c5760405163e2517d3f60e01b81526001600160a01b03821660048201526024810183905260440161076b565b61154485858585611670565b6001600160a01b038416156114a8578251339060010361157d576020848101519084015161157683898985858961188d565b505061081b565b61081b8187878787876119b1565b6001600160a01b0384166115b557604051632bfa23e760e11b81526000600482015260240161076b565b6001600160a01b0385166115de57604051626a0d4560e21b81526000600482015260240161076b565b6114a88585858585611538565b6001600160a01b03841661161557604051632bfa23e760e11b81526000600482015260240161076b565b6001600160a01b03851661163e57604051626a0d4560e21b81526000600482015260240161076b565b6040805160018082526020820186905281830190815260608201859052608082019092529061094e8787848487611538565b805182511461169f5781518151604051635b05999160e01b81526004810192909252602482015260440161076b565b3360005b83518110156117ae576020818102858101820151908501909101516001600160a01b03881615611756576000828152602081815260408083206001600160a01b038c1684529091529020548181101561172f576040516303dee4c560e01b81526001600160a01b038a16600482015260248101829052604481018390526064810184905260840161076b565b6000838152602081815260408083206001600160a01b038d16845290915290209082900390555b6001600160a01b0387161561179b576000828152602081815260408083206001600160a01b038b168452909152812080548392906117959084906122c8565b90915550505b5050806117a7906122af565b90506116a3565b50825160010361182f5760208301516000906020840151909150856001600160a01b0316876001600160a01b0316846001600160a01b03167fc3d58168c5ae7397731d063d5bbf3d657854427343f4c083240f7aacaa2d0f628585604051611820929190918252602082015260400190565b60405180910390a450506114a8565b836001600160a01b0316856001600160a01b0316826001600160a01b03167f4a39dc06d4c0dbc64b70af90fd698a233a518aa5d07e595d983b8c0526c8f7fb868660405161187e9291906122db565b60405180910390a45050505050565b6001600160a01b0384163b1561081b5760405163f23a6e6160e01b81526001600160a01b0385169063f23a6e61906118d19089908990889088908890600401612309565b6020604051808303816000875af192505050801561190c575060408051601f3d908101601f191682019092526119099181019061234e565b60015b611975573d80801561193a576040519150601f19603f3d011682016040523d82523d6000602084013e61193f565b606091505b50805160000361196d57604051632bfa23e760e11b81526001600160a01b038616600482015260240161076b565b805181602001fd5b6001600160e01b0319811663f23a6e6160e01b1461094e57604051632bfa23e760e11b81526001600160a01b038616600482015260240161076b565b6001600160a01b0384163b1561081b5760405163bc197c8160e01b81526001600160a01b0385169063bc197c81906119f5908990899088908890889060040161236b565b6020604051808303816000875af1925050508015611a30575060408051601f3d908101601f19168201909252611a2d9181019061234e565b60015b611a5e573d80801561193a576040519150601f19603f3d011682016040523d82523d6000602084013e61193f565b6001600160e01b0319811663bc197c8160e01b1461094e57604051632bfa23e760e11b81526001600160a01b038616600482015260240161076b565b80356001600160a01b0381168114611ab157600080fd5b919050565b60008060408385031215611ac957600080fd5b611ad283611a9a565b946020939093013593505050565b6001600160e01b03198116811461110d57600080fd5b600060208284031215611b0857600080fd5b8135611b1381611ae0565b9392505050565b600060208284031215611b2c57600080fd5b5035919050565b6000815180845260005b81811015611b5957602081850181015186830182015201611b3d565b506000602082860101526020601f19601f83011685010191505092915050565b602081526000611b136020830184611b33565b634e487b7160e01b600052604160045260246000fd5b604051601f8201601f1916810167ffffffffffffffff81118282101715611bcb57611bcb611b8c565b604052919050565b600067ffffffffffffffff821115611bed57611bed611b8c565b5060051b60200190565b600082601f830112611c0857600080fd5b81356020611c1d611c1883611bd3565b611ba2565b82815260059290921b84018101918181019086841115611c3c57600080fd5b8286015b84811015611c575780358352918301918301611c40565b509695505050505050565b600082601f830112611c7357600080fd5b813567ffffffffffffffff811115611c8d57611c8d611b8c565b611ca0601f8201601f1916602001611ba2565b818152846020838601011115611cb557600080fd5b816020850160208301376000918101602001919091529392505050565b60008060008060808587031215611ce857600080fd5b611cf185611a9a565b9350602085013567ffffffffffffffff80821115611d0e57600080fd5b611d1a88838901611bf7565b94506040870135915080821115611d3057600080fd5b611d3c88838901611bf7565b93506060870135915080821115611d5257600080fd5b50611d5f87828801611c62565b91505092959194509250565b600080600080600060a08688031215611d8357600080fd5b611d8c86611a9a565b9450611d9a60208701611a9a565b9350604086013567ffffffffffffffff80821115611db757600080fd5b611dc389838a01611bf7565b94506060880135915080821115611dd957600080fd5b611de589838a01611bf7565b93506080880135915080821115611dfb57600080fd5b50611e0888828901611c62565b9150509295509295909350565b60008060408385031215611e2857600080fd5b82359150611e3860208401611a9a565b90509250929050565b80358015158114611ab157600080fd5b60008060008060008060c08789031215611e6a57600080fd5b86359550611e7a60208801611e41565b9450611e8860408801611e41565b9350611e9660608801611e41565b92506080870135915060a087013590509295509295509295565b60008060408385031215611ec357600080fd5b823567ffffffffffffffff80821115611edb57600080fd5b818501915085601f830112611eef57600080fd5b81356020611eff611c1883611bd3565b82815260059290921b84018101918181019089841115611f1e57600080fd5b948201945b83861015611f4357611f3486611a9a565b82529482019490820190611f23565b96505086013592505080821115611f5957600080fd5b50611f6685828601611bf7565b9150509250929050565b600081518084526020808501945080840160005b83811015611fa057815187529582019590820190600101611f84565b509495945050505050565b602081526000611b136020830184611f70565b600080600060608486031215611fd357600080fd5b611fdc84611a9a565b9250602084013567ffffffffffffffff80821115611ff957600080fd5b61200587838801611bf7565b9350604086013591508082111561201b57600080fd5b5061202886828701611bf7565b9150509250925092565b60006020828403121561204457600080fd5b611b1382611a9a565b6000806000806080858703121561206357600080fd5b61206c85611a9a565b93506020850135925060408501359150606085013567ffffffffffffffff81111561209657600080fd5b611d5f87828801611c62565b6000806000604084860312156120b757600080fd5b833567ffffffffffffffff808211156120cf57600080fd5b818601915086601f8301126120e357600080fd5b8135818111156120f257600080fd5b8760208260051b850101111561210757600080fd5b60209283019550935061211d9186019050611a9a565b90509250925092565b6000806040838503121561213957600080fd5b61214283611a9a565b9150611e3860208401611e41565b6000806040838503121561216357600080fd5b61216c83611a9a565b9150611e3860208401611a9a565b600080600080600060a0868803121561219257600080fd5b61219b86611a9a565b94506121a960208701611a9a565b93506040860135925060608601359150608086013567ffffffffffffffff8111156121d357600080fd5b611e0888828901611c62565b6000806000606084860312156121f457600080fd5b6121fd84611a9a565b95602085013595506040909401359392505050565b600181811c9082168061222657607f821691505b60208210810361224657634e487b7160e01b600052602260045260246000fd5b50919050565b6020808252601f908201527f45564d417574683a206163636f756e7420697320626c61636b6c697374656400604082015260600190565b634e487b7160e01b600052603260045260246000fd5b634e487b7160e01b600052601160045260246000fd5b6000600182016122c1576122c1612299565b5060010190565b8082018082111561066157610661612299565b6040815260006122ee6040830185611f70565b82810360208401526123008185611f70565b95945050505050565b6001600160a01b03868116825285166020820152604081018490526060810183905260a06080820181905260009061234390830184611b33565b979650505050505050565b60006020828403121561236057600080fd5b8151611b1381611ae0565b6001600160a01b0386811682528516602082015260a06040820181905260009061239790830186611f70565b82810360608401526123a98186611f70565b905082810360808401526123bd8185611b33565b9897505050505050505056fea2646970667358221220ffe3d148827575f5bb9c5b79eab15b788c472c7aeb3e75e68910fb62ce605c2464736f6c63430008140033",
  "linkReferences": {},
  "deployedLinkReferences": {}
}